:020000040000FA
:08000000803102288731F52F41
:100CF6000800640080010131890B7D2E00345430D8
:100D06002000D4005408D5005308FC005208FB000C
:100D16005530D4005408FD000030863194268631C3
:100D260008002000CF007C08D1007B08D000C0015D
:100D3600C101AE2E5030CD004D08F8007D08CE0022
:100D46004E08F9004F0887317B2786317808200046
:100D5600C0077908C13D500884005108850012007B
:100D6600031DB62EB72E9D2E4108FC004008FB0041
:100D760008008F30F0000030F1000F30F200003034
:100D8600F3000030F400F5000130F6000030F70003
:100D96000130F8000030F9008731362786317008B7
:100DA60071040319D72ED82EE02E00302000D20071
:100DB6008830D3008631822686318F30F0000030AD
:100DC600F1000F30F2000030F3000030F400F500BF
:100DD6000030F600F7008030F8000030F900873167
:100DE600362786318031022872080319FB2EFC2E25
:100DF600012F7208031D002F012F062F7008863160
:100E06007B268631352F7208033E86008701160041
:100E1600010403190F2F102F2D2F7208033E860091
:100E26008701403FF300413FF400720A86008701C4
:100E3600403FF500413FF6007608803AF700740817
:100E4600803A7702031D292F7308750203182C2F89
:100E56002D2F352F720A8600870101308107413117
:100E66000318810A08007008860071088700740854
:100E7600C03F7508C13F7208860073088700760870
:100E8600C03F7708C13FFB01FC01692F720886004D
:100E9600730887007808C03F7908C13F4130FA00DF
:100EA600EE30890B542FFA0B542F0032720886004D
:100EB600730887000030C03FC13F0130F835F90D97
:100EC600890B612F0130FB070030FC3D7C08803A1E
:100ED600FA0080307A02031D722F06307B02031C53
:100EE600752F762F492F0130F0000030F1000800F1
:100EF600FA00780886008701403F2000C800413F7D
:100F0600C90048088400490885001200253A031DD7
:100F16008D2F8E2FD22F780886008701013081070A
:100F260041310318810AC201C301C601C701FF305E
:100F3600C400FF30C500780886008701403FC8001E
:100F4600413FC90048088400490885001200253A37
:100F5600031DAE2FAF2FC72F7808860087010130FB
:100F6600810741310318810A2530F0000030F10075
:100F76007A08C8004808F2008631F7268731013022
:100F8600F8000030F900F42F780886008701013058
:100F9600810741310318810AF801F901F42F780815
:100FA60086008701403FC800413FC90048088400C9
:100FB600490885000008CA00CB014A08F0004B0822
:100FC600F1007A08CC004C08F2008631F72687310A
:100FD6007808860087010130810741310318810AAC
:100FE600C22F08002030840000308500283086316A
:100FF6007C26873120008631BC2E703461347334F0
:04100600733400340B
:020000040001F9
:04000E00FF3FFF3F72
:00000001FF
